{
  "_format": "hh-sol-artifact-1",
  "contractName": "DutchAuction",
  "sourceName": "contracts/DutchAuction.sol",
  "abi": [
    {
      "inputs": [
        {
          "internalType": "uint256",
          "name": "_startingTimeStamp",
          "type": "uint256"
        },
        {
          "internalType": "uint256",
          "name": "_endingTimestamp",
          "type": "uint256"
        },
        {
          "internalType": "uint32",
          "name": "_startingPrice",
          "type": "uint32"
        },
        {
          "internalType": "uint32",
          "name": "_resPrice",
          "type": "uint32"
        },
        {
          "internalType": "uint72",
          "name": "_totalSupply",
          "type": "uint72"
        }
      ],
      "stateMutability": "nonpayable",
      "type": "constructor"
    },
    {
      "inputs": [],
      "name": "balance",
      "outputs": [
        {
          "internalType": "uint256",
          "name": "",
          "type": "uint256"
        }
      ],
      "stateMutability": "view",
      "type": "function"
    },
    {
      "inputs": [],
      "name": "contractBalance",
      "outputs": [
        {
          "internalType": "uint256",
          "name": "",
          "type": "uint256"
        }
      ],
      "stateMutability": "view",
      "type": "function"
    },
    {
      "inputs": [],
      "name": "getRate",
      "outputs": [
        {
          "internalType": "uint256",
          "name": "",
          "type": "uint256"
        }
      ],
      "stateMutability": "view",
      "type": "function"
    },
    {
      "inputs": [],
      "name": "getSupply",
      "outputs": [
        {
          "internalType": "uint256",
          "name": "",
          "type": "uint256"
        }
      ],
      "stateMutability": "view",
      "type": "function"
    },
    {
      "inputs": [
        {
          "internalType": "uint72",
          "name": "_totalTokens",
          "type": "uint72"
        },
        {
          "internalType": "uint256",
          "name": "_currentTime",
          "type": "uint256"
        }
      ],
      "name": "makeBid",
      "outputs": [],
      "stateMutability": "payable",
      "type": "function"
    },
    {
      "inputs": [
        {
          "internalType": "uint256",
          "name": "",
          "type": "uint256"
        }
      ],
      "name": "newRes",
      "outputs": [
        {
          "internalType": "address payable",
          "name": "sender",
          "type": "address"
        },
        {
          "internalType": "uint256",
          "name": "currentPrice",
          "type": "uint256"
        },
        {
          "internalType": "uint72",
          "name": "ammount",
          "type": "uint72"
        }
      ],
      "stateMutability": "view",
      "type": "function"
    },
    {
      "inputs": [
        {
          "internalType": "uint256",
          "name": "_currentTime",
          "type": "uint256"
        }
      ],
      "name": "priceManager",
      "outputs": [
        {
          "internalType": "uint256",
          "name": "",
          "type": "uint256"
        }
      ],
      "stateMutability": "view",
      "type": "function"
    },
    {
      "inputs": [
        {
          "internalType": "uint256",
          "name": "_endingPrice",
          "type": "uint256"
        }
      ],
      "name": "sendFunds",
      "outputs": [],
      "stateMutability": "payable",
      "type": "function"
    },
    {
      "inputs": [],
      "name": "transferTokensToContract",
      "outputs": [],
      "stateMutability": "nonpayable",
      "type": "function"
    }
  ],
  "bytecode": "0x60806040523480156200001157600080fd5b5060405162001cdd38038062001cdd833981810160405281019062000037919062000262565b600c610e1086866200004a919062000376565b6200005691906200033e565b10156200009a576040517f08c379a000000000000000000000000000000000000000000000000000000000815260040162000091906200030b565b60405180910390fd5b846001819055508360028190555082600460096101000a81548163ffffffff021916908363ffffffff160217905550816004600d6101000a81548163ffffffff021916908363ffffffff16021790555080600460006101000a81548168ffffffffffffffffff021916908368ffffffffffffffffff160217905550610e106001546002546200012a919062000376565b6200013691906200033e565b6004600d9054906101000a900463ffffffff16600460099054906101000a900463ffffffff16620001689190620003b1565b63ffffffff166200017a91906200033e565b600381905550336000806101000a81548173ffffffffffffffffffffffffffffffffffffffff021916908373ffffffffffffffffffffffffffffffffffffffff1602179055506000600460116101000a81548160ff021916908360018111156200020d577f4e487b7100000000000000000000000000000000000000000000000000000000600052602160045260246000fd5b0217905550505050505062000516565b6000815190506200022e81620004c8565b92915050565b6000815190506200024581620004e2565b92915050565b6000815190506200025c81620004fc565b92915050565b600080600080600060a086880312156200027b57600080fd5b60006200028b888289016200021d565b95505060206200029e888289016200021d565b9450506040620002b18882890162000234565b9350506060620002c48882890162000234565b9250506080620002d7888289016200024b565b9150509295509295909350565b6000620002f36024836200032d565b9150620003008262000479565b604082019050919050565b600060208201905081810360008301526200032681620002e4565b9050919050565b600082825260208201905092915050565b60006200034b82620003ec565b91506200035883620003ec565b9250826200036b576200036a6200044a565b5b828204905092915050565b60006200038382620003ec565b91506200039083620003ec565b925082821015620003a657620003a56200041b565b5b828203905092915050565b6000620003be82620003f6565b9150620003cb83620003f6565b925082821015620003e157620003e06200041b565b5b828203905092915050565b6000819050919050565b600063ffffffff82169050919050565b600068ffffffffffffffffff82169050919050565b7f4e487b7100000000000000000000000000000000000000000000000000000000600052601160045260246000fd5b7f4e487b7100000000000000000000000000000000000000000000000000000000600052601260045260246000fd5b7f41756374696f6e2073686f756c64206c61737420666f72206174206c6561737460008201527f2031326800000000000000000000000000000000000000000000000000000000602082015250565b620004d381620003ec565b8114620004df57600080fd5b50565b620004ed81620003f6565b8114620004f957600080fd5b50565b620005078162000406565b81146200051357600080fd5b50565b6117b780620005266000396000f3fe6080604052600436106100865760003560e01c80638b7afe2e116100595780638b7afe2e1461013a578063b68e15ae14610165578063b69ef8a814610181578063c9027fd1146101ac578063cf0df3e8146101c357610086565b80630abdf81c1461008b578063679aefce146100c85780636c9c2faf146100f35780638b2810181461011e575b600080fd5b34801561009757600080fd5b506100b260048036038101906100ad9190611120565b610202565b6040516100bf9190611409565b60405180910390f35b3480156100d457600080fd5b506100dd610297565b6040516100ea9190611409565b60405180910390f35b3480156100ff57600080fd5b506101086102a1565b6040516101159190611409565b60405180910390f35b61013860048036038101906101339190611120565b6102cb565b005b34801561014657600080fd5b5061014f6106f0565b60405161015c9190611409565b60405180910390f35b61017f600480360381019061017a9190611172565b610799565b005b34801561018d57600080fd5b50610196610e40565b6040516101a39190611409565b60405180910390f35b3480156101b857600080fd5b506101c1610ee9565b005b3480156101cf57600080fd5b506101ea60048036038101906101e59190611120565b611034565b6040516101f9939291906112d2565b60405180910390f35b600080610e106001548461021691906114c0565b6102209190611435565b60035461022d9190611466565b600460099054906101000a900463ffffffff1663ffffffff1661025091906114c0565b90506004600d9054906101000a900463ffffffff1663ffffffff1681101561028e576004600d9054906101000a900463ffffffff1663ffffffff1690505b80915050919050565b6000600354905090565b6000600460009054906101000a900468ffffffffffffffffff1668ffffffffffffffffff16905090565b6000600460009054906101000a900468ffffffffffffffffff1668ffffffffffffffffff1614610330576040517f08c379a0000000000000000000000000000000000000000000000000000000008152600401610327906113a9565b60405180910390fd5b60005b6005805490508168ffffffffffffffffff1610156106ec57600060058268ffffffffffffffffff1681548110610392577f4e487b7100000000000000000000000000000000000000000000000000000000600052603260045260246000fd5b906000526020600020906003020160000160009054906101000a900473ffffffffffffffffffffffffffffffffffffffff169050735fbdb2315678afecb367f032d93f642f64180aa373ffffffffffffffffffffffffffffffffffffffff1663a9059cbb60058468ffffffffffffffffff168154811061043b577f4e487b7100000000000000000000000000000000000000000000000000000000600052603260045260246000fd5b906000526020600020906003020160000160009054906101000a900473ffffffffffffffffffffffffffffffffffffffff1660058568ffffffffffffffffff16815481106104b2577f4e487b7100000000000000000000000000000000000000000000000000000000600052603260045260246000fd5b906000526020600020906003020160020160009054906101000a900468ffffffffffffffffff166040518363ffffffff1660e01b81526004016104f6929190611309565b602060405180830381600087803b15801561051057600080fd5b505af1158015610524573d6000803e3d6000fd5b505050506040513d601f19601f8201168201806040525081019061054891906110f7565b5060008360058468ffffffffffffffffff1681548110610591577f4e487b7100000000000000000000000000000000000000000000000000000000600052603260045260246000fd5b9060005260206000209060030201600101546105ad91906114c0565b90508173ffffffffffffffffffffffffffffffffffffffff166108fc633b9aca0060058668ffffffffffffffffff1681548110610613577f4e487b7100000000000000000000000000000000000000000000000000000000600052603260045260246000fd5b906000526020600020906003020160020160009054906101000a900468ffffffffffffffffff1668ffffffffffffffffff16846106509190611466565b61065a9190611466565b9081150290604051600060405180830381858888f19350505050158015610685573d6000803e3d6000fd5b506001600460116101000a81548160ff021916908360018111156106d2577f4e487b7100000000000000000000000000000000000000000000000000000000600052602160045260246000fd5b0217905550505080806106e4906115df565b915050610333565b5050565b600080735fbdb2315678afecb367f032d93f642f64180aa373ffffffffffffffffffffffffffffffffffffffff166370a08231306040518263ffffffff1660e01b815260040161074091906112b7565b60206040518083038186803b15801561075857600080fd5b505afa15801561076c573d6000803e3d6000fd5b505050506040513d601f19601f820116820180604052508101906107909190611149565b90508091505090565b6000600460009054906101000a900468ffffffffffffffffff1668ffffffffffffffffff16116107fe576040517f08c379a00000000000000000000000000000000000000000000000000000000081526004016107f5906113c9565b60405180910390fd5b60006001811115610838577f4e487b7100000000000000000000000000000000000000000000000000000000600052602160045260246000fd5b600460119054906101000a900460ff166001811115610880577f4e487b7100000000000000000000000000000000000000000000000000000000600052602160045260246000fd5b146108c0576040517f08c379a00000000000000000000000000000000000000000000000000000000081526004016108b790611369565b60405180910390fd5b60006108cb82610202565b9050633b9aca00818468ffffffffffffffffff166108e99190611466565b6108f39190611466565b3414610934576040517f08c379a000000000000000000000000000000000000000000000000000000000815260040161092b90611389565b60405180910390fd5b600460009054906101000a900468ffffffffffffffffff1668ffffffffffffffffff168368ffffffffffffffffff161015610aa657600560405180606001604052803373ffffffffffffffffffffffffffffffffffffffff1681526020018381526020018568ffffffffffffffffff16815250908060018154018082558091505060019003906000526020600020906003020160009091909190915060008201518160000160006101000a81548173ffffffffffffffffffffffffffffffffffffffff021916908373ffffffffffffffffffffffffffffffffffffffff1602179055506020820151816001015560408201518160020160006101000a81548168ffffffffffffffffff021916908368ffffffffffffffffff160217905550505082600460009054906101000a900468ffffffffffffffffff16610a7791906114f4565b600460006101000a81548168ffffffffffffffffff021916908368ffffffffffffffffff160217905550610e06565b600460009054906101000a900468ffffffffffffffffff1668ffffffffffffffffff168368ffffffffffffffffff161415610bf757600560405180606001604052803373ffffffffffffffffffffffffffffffffffffffff1681526020018381526020018568ffffffffffffffffff16815250908060018154018082558091505060019003906000526020600020906003020160009091909190915060008201518160000160006101000a81548173ffffffffffffffffffffffffffffffffffffffff021916908373ffffffffffffffffffffffffffffffffffffffff1602179055506020820151816001015560408201518160020160006101000a81548168ffffffffffffffffff021916908368ffffffffffffffffff16021790555050506000600460006101000a81548168ffffffffffffffffff021916908368ffffffffffffffffff160217905550610e05565b600460009054906101000a900468ffffffffffffffffff1668ffffffffffffffffff168368ffffffffffffffffff161115610e0457600560405180606001604052803373ffffffffffffffffffffffffffffffffffffffff168152602001838152602001600460009054906101000a900468ffffffffffffffffff1668ffffffffffffffffff16815250908060018154018082558091505060019003906000526020600020906003020160009091909190915060008201518160000160006101000a81548173ffffffffffffffffffffffffffffffffffffffff021916908373ffffffffffffffffffffffffffffffffffffffff1602179055506020820151816001015560408201518160020160006101000a81548168ffffffffffffffffff021916908368ffffffffffffffffff16021790555050506000633b9aca00600460009054906101000a900468ffffffffffffffffff1685610d5891906114f4565b68ffffffffffffffffff1660056001600580549050610d7791906114c0565b81548110610dae577f4e487b7100000000000000000000000000000000000000000000000000000000600052603260045260246000fd5b906000526020600020906003020160010154610dca9190611466565b610dd49190611466565b90506000600460006101000a81548168ffffffffffffffffff021916908368ffffffffffffffffff160217905550505b5b5b6000600460009054906101000a900468ffffffffffffffffff1668ffffffffffffffffff161415610e3b57610e3a816102cb565b5b505050565b600080735fbdb2315678afecb367f032d93f642f64180aa373ffffffffffffffffffffffffffffffffffffffff166370a08231336040518263ffffffff1660e01b8152600401610e9091906112b7565b60206040518083038186803b158015610ea857600080fd5b505afa158015610ebc573d6000803e3d6000fd5b505050506040513d601f19601f82011682018060405250810190610ee09190611149565b90508091505090565b3373ffffffffffffffffffffffffffffffffffffffff1660008054906101000a900473ffffffffffffffffffffffffffffffffffffffff1673ffffffffffffffffffffffffffffffffffffffff1614610f77576040517f08c379a0000000000000000000000000000000000000000000000000000000008152600401610f6e906113e9565b60405180910390fd5b735fbdb2315678afecb367f032d93f642f64180aa373ffffffffffffffffffffffffffffffffffffffff166323b872dd3330600460009054906101000a900468ffffffffffffffffff166040518463ffffffff1660e01b8152600401610fdf93929190611332565b602060405180830381600087803b158015610ff957600080fd5b505af115801561100d573d6000803e3d6000fd5b505050506040513d601f19601f8201168201806040525081019061103191906110f7565b50565b6005818154811061104457600080fd5b90600052602060002090600302016000915090508060000160009054906101000a900473ffffffffffffffffffffffffffffffffffffffff16908060010154908060020160009054906101000a900468ffffffffffffffffff16905083565b6000815190506110b28161173c565b92915050565b6000813590506110c781611753565b92915050565b6000815190506110dc81611753565b92915050565b6000813590506110f18161176a565b92915050565b60006020828403121561110957600080fd5b6000611117848285016110a3565b91505092915050565b60006020828403121561113257600080fd5b6000611140848285016110b8565b91505092915050565b60006020828403121561115b57600080fd5b6000611169848285016110cd565b91505092915050565b6000806040838503121561118557600080fd5b6000611193858286016110e2565b92505060206111a4858286016110b8565b9150509250929050565b6111b781611597565b82525050565b6111c68161153a565b82525050565b6111d581611528565b82525050565b60006111e8601383611424565b91506111f38261166f565b602082019050919050565b600061120b601d83611424565b915061121682611698565b602082019050919050565b600061122e601783611424565b9150611239826116c1565b602082019050919050565b6000611251601483611424565b915061125c826116ea565b602082019050919050565b6000611274601883611424565b915061127f82611713565b602082019050919050565b61129381611578565b82525050565b6112a2816115cd565b82525050565b6112b181611582565b82525050565b60006020820190506112cc60008301846111cc565b92915050565b60006060820190506112e760008301866111bd565b6112f4602083018561128a565b61130160408301846112a8565b949350505050565b600060408201905061131e60008301856111ae565b61132b6020830184611299565b9392505050565b600060608201905061134760008301866111cc565b61135460208301856111cc565b6113616040830184611299565b949350505050565b60006020820190508181036000830152611382816111db565b9050919050565b600060208201905081810360008301526113a2816111fe565b9050919050565b600060208201905081810360008301526113c281611221565b9050919050565b600060208201905081810360008301526113e281611244565b9050919050565b6000602082019050818103600083015261140281611267565b9050919050565b600060208201905061141e600083018461128a565b92915050565b600082825260208201905092915050565b600061144082611578565b915061144b83611578565b92508261145b5761145a611640565b5b828204905092915050565b600061147182611578565b915061147c83611578565b9250817fffffffffffffffffffffffffffffffffffffffffffffffffffffffffffffffff04831182151516156114b5576114b4611611565b5b828202905092915050565b60006114cb82611578565b91506114d683611578565b9250828210156114e9576114e8611611565b5b828203905092915050565b60006114ff82611582565b915061150a83611582565b92508282101561151d5761151c611611565b5b828203905092915050565b600061153382611558565b9050919050565b600061154582611558565b9050919050565b60008115159050919050565b600073ffffffffffffffffffffffffffffffffffffffff82169050919050565b6000819050919050565b600068ffffffffffffffffff82169050919050565b60006115a2826115a9565b9050919050565b60006115b4826115bb565b9050919050565b60006115c682611558565b9050919050565b60006115d882611582565b9050919050565b60006115ea82611582565b915068ffffffffffffffffff82141561160657611605611611565b5b600182019050919050565b7f4e487b7100000000000000000000000000000000000000000000000000000000600052601160045260246000fd5b7f4e487b7100000000000000000000000000000000000000000000000000000000600052601260045260246000fd5b7f41756374696f6e2069732066696e697368656400000000000000000000000000600082015250565b7f4e6f742074686520726967687420616d6f756e74206f662066756e6473000000600082015250565b7f4e6f7420616c6c20746f6b656e732061726520736f6c64000000000000000000600082015250565b7f416c6c20746f6b656e732041726520536f6c6420000000000000000000000000600082015250565b7f4f6e6c79206f776e65722063616e2063616c6c20746869730000000000000000600082015250565b6117458161154c565b811461175057600080fd5b50565b61175c81611578565b811461176757600080fd5b50565b61177381611582565b811461177e57600080fd5b5056fea264697066735822122035654dd7dfb7fa9305e66a0b6d2f992e4590c65549693fb8c772d675a9ff692564736f6c63430008040033",
  "linkReferences": {},
  "deployedLinkReferences": {}
}